:020000040000FA
:0400000008EF00F015
:0200080075D0B1
:10001000D38AD3889B809B829B849B869B8CB8864B
:10002000AC844C0EB06AAF6E926893689468AB8EE5
:10003000AC8AAB88806A816A8268F86A006A016A61
:10004000026A036A046A056A066A076A086A096A34
:100050000A6A0B6A0C6A0D6A0E6A0F6A106A116AE4
:10006000126A136A146A156A166A176A186A196A94
:100070001A6A1B6A1C6A1D6A1E6A1F6A206A216A44
:10008000226A236A246A256A266A276A286A296AF4
:100090002A6A2B6A2C6A2D6A2E6A2F6A306A316AA4
:1000A000326A336A346A356A366A376A386A396A54
:1000B0003A6A3B6A3C6A3D6A3E6A3F6A406A416A04
:1000C000426A436A486A640E4F6E060E506E516A69
:1000D0004C6A4D6A4E6A576A830E526E430E536ED7
:1000E000030E546E4A6E496E3A0E556E070E566EEA
:1000F000400E066EF18CF292F288F29E486A03007E
:10010000F292F19CF28E81AAFED781BAFED7816A63
:1001100081BCFED781ACFED7819E4ABE818E81BA5A
:10012000F2D7818881BCFED781ACFED793684CB0F2
:10013000939881B4FED781A4FED7476A81BE4780D9
:1001400081BCFED781ACFED79388816A4C6A81B4AA
:10015000FED781A4FED781BE478243B0516A514287
:1001600081B4FED781A4FED781BE478481B4FED777
:1001700081A4FED781BE478681B4FED781A4FED775
:1001800081BE478881B4FED781A4FED781BE478A4D
:1001900081B4FED781A4FED781BE478C576A81B453
:1001A000FED781A4FED781BE478E47504EA001D016
:1001B000AD6E81B4FED781A4FED74EA00DD0D70876
:1001C0000BE6070809E6499E47B0498E499C47B2AD
:1001D000498C499A47B4498A81B4FED781A4FED795
:1001E0004EA00DD0499649984750E80803E1498848
:1001F000498604D04750E00802E14986499C4E6A8E
:1002000081B4FED781A4FED74250070B050806E152
:10021000435001E14898800801E1488881B4FED745
:1002200081A4FED781B4FED781A4FED781B4FED7C6
:1002300081A4FED7406A416A81B4FED781A4FED76B
:1002400081B8418081B4FED781A4FED781B84182B4
:1002500081B4FED781A4FED781B8418481B4FED792
:1002600081A4FED781B8418681B4FED781A4FED790
:1002700081B8418881B4FED781A4FED781B8418A74
:1002800081B4FED781A4FED781B8418C81B4FED75A
:1002900081A4FED781B8418E81B4FED781A4FED758
:1002A00081B8408081B4FED781A4FED781B8408256
:1002B00081B4FED781A4FED781B8408481B4FED733
:1002C00081A4FED781B8408681B4FED781A4FED731
:1002D00081B8408881B4FED781A4FED781B8408A16
:1002E00081B4FED781A4FED781B8408C81B4FED7FB
:1002F00081A4FED781B8408E81BCFED781ACFED7E9
:1003000040506D0804E14150710801E14D8081BC0D
:10031000FED781ACFED740506E0804E1415033084F
:1003200001E14E8081BCFED781ACFED74050F00B7E
:10033000E83A4824E96EEF5002E174EF02F081BC24
:10034000FED781ACFED7F76E40500F0BF71241502D
:10035000F66E0800F5CF43F081BCFED781ACFED726
:10036000F732F632F732F632F7503F0BF76E0800ED
:10037000F5CF42F081BCFED781ACFED741A201D0BF
:10038000423A41A002D042324232030E421681BCB0
:10039000FED781ACFED74350640804E14250020806
:1003A00001E1518281BCFED781ACFED751A006D0BD
:1003B000425004E14350830801E14C8081BCFED7E8
:1003C00081ACFED751A006D0425004E1435043080F
:1003D00001E14C8081BCFED781ACFED74DB0939E2D
:1003E0004D6A81BCFED781ACFED7819E49B0818E1B
:1003F00081BCFED781ACFED7819E49B2818E81BC83
:10040000FED781ACFED7819E49B4818E81BCFED7D8
:1004100081ACFED7819E49B6818E81BCFED781AC6E
:10042000FED7816A939843B0818849B8818E81BC98
:10043000FED781ACFED7816A43B2818849BA818EEA
:1004400081BCFED781ACFED7816A43B4818849BCA8
:10045000818E81BCFED781ACFED7816A43B681888C
:1004600049BE818E81BCFED781ACFED7816A43B87C
:1004700081884AB0818E81BA428481BCFED781AC2A
:10048000FED7816A43BA81884AB2818E81BCFED789
:1004900081ACFED7816A43BC81884AB4818E81BC1D
:1004A000FED781ACFED7816A43BE81884AB6818E71
:1004B00081BCFED781ACFED7816A42B081884AB840
:1004C000818E81BCFED781ACFED7816A42B2818821
:1004D0004ABA818E81BCFED781ACFED79388819EBB
:1004E0004ABC818E87EF00F0160E81BCFED781AC2E
:0A04F000FED7E82EFAD787EF00F0E0
:10100000000000000002002002000000008001003B
:1010100050005051004005005451001015515145E9
:1010200001001500504500400500005111004044EA
:101030005404151114155555555555555451145101
:1010400054110500405404051155415115410555F1
:10105000155551155554155545455504555455517B
:10106000555150511555504541554155415555150E
:101070005555455555555555145514515110550054
:10108000001455155551455555011511155145512A
:1010900011055145080000005C311601C01583514F
:1010A000146343354100667F64DBDB80D92C5DD857
:1010B0008F4C3544F2471421370380114518001036
:1010C0004E40804312005C0AA06AC811A09D84842F
:1010D00032D815202020202052A94E3A41180590E0
:1010E00013915DA9309167ABC430F00201515806ED
:1010F00051514115A111001DD1480F869D8F7302DA
:101100004D7AD5B5B621BBFBDB0F85D851442E7483
:1011100036B60CD8DD700302E02DC53C4C2FC8005C
:101120000CE25228E378743C017068905511D004A9
:10113000D0F1C84E7B10E5245240F3FC8A82024372
:101140003C4128ADCB8C878E6089F88424004E0901
:10115000676E483D25206F9D084570069E148244A9
:10116000FD2427CC83982531CF7D9015534432053B
:10117000149CDC194CB11FED4341104551DC5DF767
:101180004730D24C5DF3C58084961413737794383E
:1011900022D1D44196FCF2817F060018000086D14E
:1011A00075D9088E71988091095A9722081A63663A
:1011B000C58A85024C5A219481029980D88C24A03A
:1011C00061146A256F5904C07F0D5447419346D07E
:1011D000513014C553287A6790502423451D451D6E
:1011E0002900284C122628200C441C10180006FE4A
:1011F00087613037FA04714F5E54850C000080FF20
:10120000000010D5455860166051C5713406035B67
:101210007C3140C491594C3119B0781190C51103FB
:10122000458A1913373163116E04E0711CC771C40C
:101230004C80E25C41C04400C5B3E06357405509AF
:10124000DC4850D407E830B0849D034C00411F6651
:1012500021E22DC705EC1B14B821445DD7C805B1A8
:10126000C540136747180E41BB1C260ED301F198E9
:101270004150CC403301C06419C104D0581D5810EE
:10128000A642314E1026E3380210401480805A5D89
:10129000B866015A5744054544475DCC6479C67B1E
:1012A000D5AE5303A156A0502627A05F5E40F3C4DD
:1012B000FF00033B27C5C4C4444745436EC61084A2
:1012C000C510402925511D1315136605AE856BD732
:1012D0001551948BA4D093F9017942F89517C3570F
:1012E000F84D210F0676489BF03D513315D56873B4
:1012F000F452C757711110111284D1C4D770720300
:101300000094D955F2ED3D0067007046449365EDB9
:101310003350407130B3C01004605FC10CCC80F218
:10132000388195983D2114C252D05EC20C749671DA
:101330001433E004DE1342092C125CF101008742F1
:101340002D2703002898056535B58F70000060C40F
:10135000941C000038D73BBB2018E2B220B25B756A
:10136000F0C9CB506D66546CCB9E5D5E9D6C8974EC
:101370009F0917D704002148347D1CC675411B10F6
:10138000543DE4AB22823FF3C0EE6422237BE105AF
:10139000FAFF354D2F144F8CF30300460200021064
:1013A000E028464247DACD2C6E370728628B68A4C6
:1013B00000349194150440101045CC15B8360060E7
:1013C000040000A122D295E873774E0B20C6518706
:1013D0003BAA168588460A01DD11D125D0F401000B
:1013E000004600663480D9328C0B8B5ACE6104D013
:1013F00051C8901DD9919951D9191919460228C07F
:104000001D19025B02AF0C200C2A0D100F970CF843
:104010000A09029801090C050E6C0EFE0A130038FD
:1040200000A102FC0319030702EB0F8C0678026162
:104030000273066D00004D60C800F7005052504CEE
:104040004F548CF64E414D45203F8E8B9A0B0CF70A
:1040500059204D494E203F8E30F759204D41582070
:104060003F8E3146BC180DF641584953203FA917E1
:104070008E34AC179A042144BD14772045BD190E27
:10408000F758204D494E203F8E38F758204D415863
:10409000203F8E3946BE18F75820494E43203F8EA8
:1040A0003AC00FF8005052504C4F5450A90C8F1684
:1040B000A756F8504C4F54204F46209B0BA741A7C2
:1040C0004A2829F158E134893717A742A74A111322
:1040D0001032A7492A64B1872928412A61433A014D
:1040E00029286144712743566812413528360F9CB0
:1040F0008527436EA74513A75726AE8BA7552A924F
:1041000006292646BF189C0485CC0EF70050524164
:10411000584953A90C2021F159E0E08936111215B4
:10412000A742A74A2268613211161844BB00202614
:10413000436EA745E090857421E087847440411761
:104140004675A7572126436EA7458F247A67B4CFBB
:10415000762045BB004121204144BB004322114150
:10416000421A15406891722426436EA745E0578590
:10417000124345B18940221141448341B2850183F4
:1041800040224102A7578FE06A883567B195221116
:104190004178B18F711141E03F86251140B287040B
:1041A000E051880122120241E02E868F2225114023
:1041B000111B134340835471247A677575329C0434
:1041C000850526436E06616863B1827515015668E0
:1041D00025401340174285078383174B124368A776
:1041E0005741F12D081745B18541A741B80A01751E
:1041F000A75709111217A74374850AF97F203C5568
:104200004E4954533D46BBC3716144715666B18BF0
:1042100068127145B28D413510B38D016963117615
:1042200068714102F37F20450314A756A7419C0003
:104230007567B18AA7455712359C0275B286011180
:10424000A7459C8502F23E20A741850B104300C87C
:104250002E2F821315140E0912102D920803100B25
:1042600013319C063018069399B430A0338C0F0399
:10427000100B13319C0630A806B5A2C1B41306304A
:104280009FBC3007065F3AC6F33C99B8BC46468BE4
:1042900030B8E9B86381121059B4D188B8581DA458
:1042A0009DB615B4E0C9B4E09379B47B810301995C
:1042B000B4D1886B4E9C10900E9C5090EE387C1CB4
:1042C0007C1423EA2B9C8DB87ABEB37E9EA6A606EC
:1042D0007038266BE05859901C98954E084670DC53
:1042E00099B6C1B0BD1E8B1413121059B44E30F1E3
:1042F000BC704E300368FB8705121210C15CA64EDD
:104300007078BA63CE12109D58A64E7078DC4A3C85
:104310003EA603980705121210319CBC68A0F884D1
:10432000ED6426262660E59CA678BA785A3C464E6F
:104330009CAA6859B41DA4783CB95844EE584E70F4
:1043400078AE789C464A975E43858C7E5820207EC6
:10435000585E327E5920207E595E327E5859204E5A
:10436000A3463CDAB01A1A1A1A3099B83AF6DBA307
:10437000305299B83C3DAC63F98C545A5958B01A34
:104380003099B801903D20D9901DA42DB8783A6895
:10439000A63C06DD8E9DB448E004CDB4E0387E7EB8
:1043A000CB41A43DA48A3DA41DB4581C22671CAA7D
:1043B000588C53B9A40190A733E5AC13E5AC1C6A43
:1043C000ED1898C6C223A6A2A24EAA06EEEEEEA64D
:1043D000C67C063DAC01902042595445531DA4F1C2
:1043E000B89DB65C024C13629C985820C9B42BE56A
:1043F000AC1DA4445C4213489C98580819720000F4
:10440000B03055B83AF6DB70F6F6F6A02DB89360EA
:10441000C9B4E0E190FB60A0B83C580CA004987CC3
:10442000A8C9B4E0B8580C2341A42B8C33D1881D03
:10443000A43B01900190A7E84CA0110CA5B61DB4B7
:1044400038BC5804780EB83CF6E9501C2362BEDC38
:1044500062E7A28C5B13DCBEF3792CA2D413084C68
:10446000B3E01CDC20F3D48F1EBE2F5467DCDB8C42
:104470001BD013D0DC9BD69BA08C830C77792CA20D
:10448000F6D423D0142776E31CD01EBE5EDC0C13BA
:1044900050BE760C8B261C6257A29C62231C8A237A
:1044A000A2130A1C1B169C834E7079B420CE58E5CB
:1044B00090F59C98C90E9813F81E7E7E33ED286EF9
:1044C00004C30E4D90AE7C1C4AEE4B7CEAF38DB8D3
:1044D0007CEAE7302255BA8E0E30009413063CDE9B
:1044E000FC99B8302E0C99B95CD0DC02631C4AA050
:1044F0001CD627D01CE2901CFCE258E09C9899B88E
:10450000A03C6253302CA2E21F262699B8D4D4D303
:10451000E06483A0CC604670980C1336687C56E645
:1045200021064471B44C378C277858E07049A4B800
:10453000AA0AA8B18C9DA44E704C2BE1941186B0B0
:1045400025B4B80E787CD1A846704C01A5CCC50323
:1045500061B44C3F0C1B481B0CA38435A40DA44C28
:104560004364832BE194A5B65A5CD070B80AC58C1D
:10457000785804F613086D065D1C44A50E3005BC82
:104580000EB8588C41B06483A0987C5CAA7CC67C31
:104590009C985E4C133E584471B48C1F4CB398EEFB
:1045A000B8580CF1973C5898BC1C0A90D050101C7D
:1045B0006A5F4CF3F990D190110CC1024CAB0C37EF
:1045C000F99030116B1C10101C6A8B1DB4D188BA85
:1045D0003C9C583198D3B86EA845A83C06B82EA884
:1045E0009C9856463017A6C627DDB86391BC4B8D04
:1045F000BC5331983B1DB445A80DA4EB1DB4B83C89
:10460000584C8B41A40C59A4E5A448888A9C58D1E5
:10461000A41DA498584C0B4C0741A4E5A86550E68E
:104620001B4C172675AC98BC560630CD66DB30CFD8
:1046300066BB01A445A81DA4E19098FE13489C58B0
:104640003CE63C5C0ABC58E00190004B98BC1C0A5C
:1046500090D010901C6AA09C101C6AA0308FAA3CBD
:104660001C6AA0B03AE0940F0C100B141399B448D4
:104670005B940F0C1007051299B444219CAE0E41B7
:104680009C98419C98059C5413EEB5A2FEEF7021B6
:104690009CCE419CCE059CFE1BB053219C6E980580
:1046A0009CFE134E68219C58419C9804FE1B085E9A
:1046B00088A0ED64EEAB0E4E5C50059C6058E59C06
:1046C0000630A80633B8A6A8980EB0A06160A55021
:1046D000D49F700E78A99C063003461346BC0EB8D2
:1046E000065CAAA80C233C5653219CA084ED64E6EA
:1046F000AF219C4E1B5E1BB8D398FE1F4EABA0BED5
:104700000EB0A99C730630030660E59C06A6B8A609
:10471000063768BC1AB8063006C61306863C568EA5
:104720008E8E0613582627C6261BFD887188019099
:1047300077668698061706782EC666C6C66B047519
:1047400088019001FB66061BA606C686F9884C7F89
:10475000783C0630030670387E7E230E7188DC902C
:10476000AE79B4B83C560630074678A6066F466662
:10477000C6A686F9887188019077C6F9880DA49D30
:10478000B6A0BE001D60A5524670604CB7783C0EC6
:10479000703858AE2E0E7038AE2E7038EE4E70F85F
:1047A000EEE038EE7858B80EF8E03560A5500E1EF1
:1047B0004EA6501D6088ED6460065E46FAA0566005
:1047C0007CA647FCA62FFCA6B5A2E10A3D9C5BF89F
:1047D0007E7EA089521E1C6A44CCA048E0D870445A
:1047E00084B8BCFA1348FEFEFEFE1388B0E0000059
:1047F0000000000000000000000C1348D87CD8E046
:104800008BA3ABDBB3ABA39B93FBABF3032B23FDDE
:10481000A230CFA663E1A230903B51A49DA230917B
:104820000286F5A41EC699A29B30D04330CE068BDB
:1048300061A69C02F1A4FE6E3DA41DB4D884CB30C9
:10484000A80629A730AE06CF19B4E630D006C61C9C
:10485000E2136251A4FDA41EC6D87B48309C061307
:1048600044F1A4FE19B4D88C7B84D8064401904945
:104870004E4420DC105E1BD806163066068BBE1E2A
:104880007E4C177E1EFCE621AC49ACC63CD330748E
:10489000660B06E3307006AF66E326C6305AA627DD
:1048A00066EB467E55B8BE465AFC70E03025A33014
:1048B0001A8B304C7B305463301D068B1A301A062D
:1048C000B76647302E8C9F66668326663F01A47AC2
:1048D00030453B302D23A61CD07A55B819B46E56FE
:1048E00006301D1C621F06B7BA4670E0E616F1A43A
:1048F000559CB5BC7B1E1CC9BCB5BCC9BC662BA6EF
:104900005E559C3CBE1EFE302255B8BE27B5BCD3BA
:104910004D904EDEFC3A3AE06E8E3DA41DB41C2252
:104920004330CFF5A4559C7BD8CC7F8C6BD80190BD
:104930002E454E442E4E1C50E0D830C055A49DA2AA
:1049400049242DA8E61726E8064C1187E0441B5899
:104950004841A41DB41CEAE388D1A84CC361B40C3F
:104960001348D83CFE238C2743FE4BBCFE1DA40CF1
:104970001DA44884467084B85CE213884C5BF875CB
:10498000AC30208C174655B89C9806161C443C3019
:1049900040E6FCE0A63C30147C301C50BC845E1A1F
:1049A000847A303E56D84C1B2E448C2B84D88813E6
:1049B000D87006ADACB0A655B88C33E0A655A43E71
:1049C00030201B30E855BA30E0E3A67C7019B406FD
:1049D00098F01CAA040120730C6FB058AEBC75A4EB
:1049E0000C9DA2D5AE0EB058019058524F4D204E9E
:1049F0003BDC501E48D9A2DA3C3DAC302C55B8C641
:104A00003DACDC90EB9413090C00F84666E8A62B4D
:104A1000901210007858EE6B1598EE810A4CEFC496
:104A20000C5BC84BCC2341A43395A43C1C0AED1865
:104A3000C58C46665A5C50106859B401A41DA40880
:104A40001B2EE87866776871B4E60C13488C67FA19
:104A50001DA42DB8C64C8B3DA4044C13083007068A
:104A60003CC6DDB80DA42B3DA41DA441A4E5A8CDF2
:104A7000A84C7B61B48C1DA541BEC658B86EA83544
:104A8000A41A7AB82EA878841A3FBABA1ABB5A2345
:104A90007ABA5A688835A4044C4778FA330190A250
:104AA0005B08881A1DA4785A5C5010681A0B2DB840
:104AB0008C7F1DAA448E56069C581C429B30CE62A9
:104AC0006066A0065B1C6A8A3DA41DB41C22A04837
:104AD000E098BC560E30CD66E330A0065730A806ED
:104AE0003398BC0855A6A606BC5C5010301C50BCC0
:104AF0007A30E6FFDC3005664F019052554ED09D6E
:104B0000A2300166B7019047544F202E983C2637BB
:104B1000501E26D7EB01902E903330AE662F98BCF6
:104B200029A230CD664F30CF55A4FDA41E93A65EBA
:104B3000FCBB3A75A41EBA7A30F699A201A47E3065
:104B4000F6F6F64344134898BC99A27A30768F76ED
:104B50006B983CDCD0AE30E806177E11A276434D50
:104B6000904EBEFC1A781C7AEA3355B84A3CCB4DBD
:104B7000907A98BC1C0A300F6A1BBAE001A47A989C
:104B8000BC6658EDB4AB5E0E30107046F0A1165EF8
:104B90001DAC7EBAFCBE603003FC55B8CB19ACDC52
:104BA000D07E1E01A5739C98585990989C58753AD0
:104BB000B0B058599098707D8ADCD01ED91C2DACAD
:104BC00089B81C7CEA99B9BEB3492684F8F6F6F692
:104BD000F61388063040C61B467BC63FC647302CBE
:104BE0003C53302E1B303A3C3040468C4730200638
:104BF000A0E646E03CA63C30C0FC3006E0000000E9
:104C00008615021210E5B4798A15B4E0F1B4F59E68
:104C10005D1C88983CD808D87CA8E0920803030162
:104C2000A5B099B4538C0F030301A5B0C1B489B8E2
:104C30009DB6A6588C41B04471B44C6F0EB83CD8A8
:104C40000CD758AE0C37FAFA538C27DDBCDB1DA409
:104C500059360C878C9F5808ED0483584C5B30FF05
:104C600099B8338C6F4CC5B3B8589806A61306CDC7
:104C70009E580C13481D3CBD1C1012188C2BB8BD3F
:104C80001C01DDAC49245C90D050108C231C10100A
:104C90000E989C5830E0665FE661B4C64C1F8CBF2E
:104CA000A93A04B1703C30E866FB61B44C1F8CDF5C
:104CB0007B580C6F59900DA44461B44C5F4CDF439A
:104CC0000190FF481D3CBD1C010416DDAC49245C6D
:104CD00010D00E989C5830E0665FE661B44C27C651
:104CE0004CBFA93A6699B85936319C0630800660A7
:104CF0001B83051013040C02A5B0B87EFE134EEE04
:104D0000EE7CDC50CAEA06EE910283051013030123
:104D1000F87E7EB5A2C1B4DC901EF81B98EEFCEEC6
:104D2000EE587C8DB8BEB34CA0A1886483A7898857
:104D30001012090E140512200F06064924F10CED7D
:104D40008ADDB44C7B89881012090E1420051212DA
:104D50000F124B0C8BDDBC23984C605B984C60644D
:104D60000327644313483020661B488B6443D36495
:104D70003A054C7B640387447321B40B71B4E59E00
:104D800000007C759E6483A0B8CC27584C2B1CE295
:104D9000E2A044B03AE021B42371B47320E021B41E
:104DA000E36483B7C4BB0421B49BF1B40C1DA50319
:104DB00008B3086483A04471B44C3F8C2F0CA04C02
:104DC000A03CB03A70FC1BCE58F9B40CD1B404B876
:104DD000DCE2238C931B8C7FE2238C5B1B8C470CC7
:104DE000234C601B4CA0B830D0D8E21308E21388E3
:104DF0000CA3089330E04C7B9C10630C3B04302DDB
:104E000055B87A7A7A981CD051B8FC983C7E7E7E50
:104E10007E1BE21722704670B8D88C27D8B0E0D835
:104E2000B02BA6D884D84C60703085E66647640302
:104E3000E7B06407E0483B6630A0065B71B40C1332
:104E4000484C600C608C60D861B4A3F1B8D89DB4B4
:104E5000CCA0203C5606301866214630876627C411
:104E60001D02C8CCE09307010C06121059B4019042
:104E7000E05354415455533AE053495A453D20C1FB
:104E80005C4E70783C46DCD041AC0190E07E3D2029
:104E900078BCA67C463DAC1DA4B83C1C425804041A
:104EA000889855A41DA4B83C58309C0C2F260C1390
:104EB00026AEF1A4B83C5A3C5E3E41AC0190E0E025
:104EC000464C4147533AB846580190E04620983D39
:104ED000AC98EE570190A2434C4541523B0190A241
:104EE0005345549DB498A6300C661FB8BCEE3038BC
:104EF000A62666AF7988C1029319050B121059B422
:104F00000190E055534552204B4559533A4E706835
:104F100078AE05BCEEF9BE1DA42DB8785E3E683CA7
:104F2000580C01A4EDB401A4783CA6660401AC0CB5
:104F3000571CE22755A44351A42B0E44D5A04E7014
:104F40001C101CA278024B3668F6F65BE2E21FF6F4
:104F50003378562268E241BE78FE3F01904E4F4EB4
:104F600045D1BA9C30180698C6E1B80DA64CE5A606
:104F70002DB64C59A66EE089880F1514200F062017
:104F800010011005124924F90E98121059B4D5BC1D
:104F90009DB4C10298030199B4E190AB6483A0CCA5
:104FA0001F4C3BCC605D1C4C60604E70448471B4FF
:104FB0008CA0A025B4F8E1900190A42A2A2AE8E068
:104FC0005841B0981B6483D19EC9B231BEAD8ABD31
:104FD0008EC1AE558A3D92658EA58AA19225B2F505
:104FE00096898A8D8E0596599299AE459671BE0026
:104FF000E59299BA8B000000003B3315311210CABC
:020000040030CA
:08000000FF081800FF8180FFDA
:0200000400F00A
:10000000436C6F6E69782D5030332D32332D32337F
:1000100032303A31313A33362D2D2D2D2D2D2D2DD7
:10002000524F4D20426C6B31202020202020202078
:10003000503D2020423D2020202020202020202034
:10004000503D2020423D2020202020202020202024
:10005000503D2020423D2020202020202020202014
:10006000503D2020423D20202D2D2D2D2D2D2D2D9C
:10007000524F4D20426C6B32202020202020202027
:10008000503D2020423D20202020202020202020E4
:10009000503D2020423D20202020202020202020D4
:1000A000503D2020423D20202020202020202020C4
:1000B000503D2020423D20202863294444273038E9
:1000C000FFFFFFFFFFFFFFFFFFFFFFFFFFFFFFFF40
:1000D000FFFFFFFFFFFFFFFFFFFFFFFFFFFFFFFF30
:1000E000FFFFFFFFFFFFFFFFFFFFFFFFFFFFFFFF20
:1000F000FFFFFFFFFFFFFFFFFFFFFFFFFFFFFFFF10
:08010000FFFFFFFFFFFFFFFFFF
:00000001FF
